{
  "contractName": "eVote",
  "abi": [
    {
      "inputs": [],
      "payable": false,
      "stateMutability": "nonpayable",
      "type": "constructor",
      "signature": "constructor"
    },
    {
      "anonymous": false,
      "inputs": [
        {
          "indexed": true,
          "internalType": "uint256",
          "name": "_voteIndex",
          "type": "uint256"
        }
      ],
      "name": "votedEvent",
      "type": "event",
      "signature": "0xfff3c900d938d21d0990d786e819f29b8d05c1ef587b462b939609625b684b16"
    },
    {
      "constant": true,
      "inputs": [],
      "name": "authorizeUsers",
      "outputs": [
        {
          "internalType": "bool",
          "name": "",
          "type": "bool"
        }
      ],
      "payable": false,
      "stateMutability": "view",
      "type": "function",
      "signature": "0xb2b956e2"
    },
    {
      "constant": true,
      "inputs": [
        {
          "internalType": "uint256",
          "name": "",
          "type": "uint256"
        }
      ],
      "name": "candidates",
      "outputs": [
        {
          "internalType": "uint256",
          "name": "id",
          "type": "uint256"
        },
        {
          "internalType": "bytes32",
          "name": "name",
          "type": "bytes32"
        },
        {
          "internalType": "uint256",
          "name": "totalVotes",
          "type": "uint256"
        }
      ],
      "payable": false,
      "stateMutability": "view",
      "type": "function",
      "signature": "0x3477ee2e"
    },
    {
      "constant": true,
      "inputs": [],
      "name": "finishedVote",
      "outputs": [
        {
          "internalType": "bool",
          "name": "",
          "type": "bool"
        }
      ],
      "payable": false,
      "stateMutability": "view",
      "type": "function",
      "signature": "0x55e3e5d6"
    },
    {
      "constant": true,
      "inputs": [],
      "name": "registerCands",
      "outputs": [
        {
          "internalType": "bool",
          "name": "",
          "type": "bool"
        }
      ],
      "payable": false,
      "stateMutability": "view",
      "type": "function",
      "signature": "0x61243761"
    },
    {
      "constant": true,
      "inputs": [],
      "name": "startVote",
      "outputs": [
        {
          "internalType": "bool",
          "name": "",
          "type": "bool"
        }
      ],
      "payable": false,
      "stateMutability": "view",
      "type": "function",
      "signature": "0x4c0a6af0"
    },
    {
      "constant": true,
      "inputs": [],
      "name": "totalCandidates",
      "outputs": [
        {
          "internalType": "uint256",
          "name": "",
          "type": "uint256"
        }
      ],
      "payable": false,
      "stateMutability": "view",
      "type": "function",
      "signature": "0x3866965c"
    },
    {
      "constant": true,
      "inputs": [],
      "name": "totalVoters",
      "outputs": [
        {
          "internalType": "uint256",
          "name": "",
          "type": "uint256"
        }
      ],
      "payable": false,
      "stateMutability": "view",
      "type": "function",
      "signature": "0x5f5300ff"
    },
    {
      "constant": true,
      "inputs": [],
      "name": "voteOngoing",
      "outputs": [
        {
          "internalType": "bool",
          "name": "",
          "type": "bool"
        }
      ],
      "payable": false,
      "stateMutability": "view",
      "type": "function",
      "signature": "0xa4551fc5"
    },
    {
      "constant": true,
      "inputs": [],
      "name": "votedUsers",
      "outputs": [
        {
          "internalType": "uint256",
          "name": "",
          "type": "uint256"
        }
      ],
      "payable": false,
      "stateMutability": "view",
      "type": "function",
      "signature": "0x9f8e4815"
    },
    {
      "constant": true,
      "inputs": [
        {
          "internalType": "uint256",
          "name": "",
          "type": "uint256"
        }
      ],
      "name": "voterList",
      "outputs": [
        {
          "internalType": "address",
          "name": "",
          "type": "address"
        }
      ],
      "payable": false,
      "stateMutability": "view",
      "type": "function",
      "signature": "0x50e2e8af"
    },
    {
      "constant": true,
      "inputs": [
        {
          "internalType": "address",
          "name": "",
          "type": "address"
        }
      ],
      "name": "voters",
      "outputs": [
        {
          "internalType": "bool",
          "name": "hasVoted",
          "type": "bool"
        },
        {
          "internalType": "uint256",
          "name": "vote",
          "type": "uint256"
        },
        {
          "internalType": "bool",
          "name": "isRegistered",
          "type": "bool"
        },
        {
          "internalType": "bool",
          "name": "isLoggedIn",
          "type": "bool"
        },
        {
          "internalType": "bool",
          "name": "allowedToVote",
          "type": "bool"
        }
      ],
      "payable": false,
      "stateMutability": "view",
      "type": "function",
      "signature": "0xa3ec138d"
    },
    {
      "constant": false,
      "inputs": [
        {
          "internalType": "string",
          "name": "_voter",
          "type": "string"
        }
      ],
      "name": "voterAuth",
      "outputs": [
        {
          "internalType": "bool",
          "name": "",
          "type": "bool"
        }
      ],
      "payable": false,
      "stateMutability": "nonpayable",
      "type": "function",
      "signature": "0xe280ab3c"
    },
    {
      "constant": false,
      "inputs": [
        {
          "internalType": "string",
          "name": "_email",
          "type": "string"
        },
        {
          "internalType": "string",
          "name": "_password",
          "type": "string"
        }
      ],
      "name": "loginVoter",
      "outputs": [
        {
          "internalType": "bool",
          "name": "",
          "type": "bool"
        }
      ],
      "payable": false,
      "stateMutability": "nonpayable",
      "type": "function",
      "signature": "0x400af02a"
    },
    {
      "constant": false,
      "inputs": [
        {
          "internalType": "string",
          "name": "_email",
          "type": "string"
        },
        {
          "internalType": "string",
          "name": "_password",
          "type": "string"
        },
        {
          "internalType": "string",
          "name": "_idno",
          "type": "string"
        }
      ],
      "name": "registerVoter",
      "outputs": [
        {
          "internalType": "bool",
          "name": "",
          "type": "bool"
        }
      ],
      "payable": false,
      "stateMutability": "nonpayable",
      "type": "function",
      "signature": "0x07439509"
    },
    {
      "constant": false,
      "inputs": [],
      "name": "logout",
      "outputs": [],
      "payable": false,
      "stateMutability": "nonpayable",
      "type": "function",
      "signature": "0x1f3c99c3"
    },
    {
      "constant": false,
      "inputs": [],
      "name": "authorizingUsers",
      "outputs": [],
      "payable": false,
      "stateMutability": "nonpayable",
      "type": "function",
      "signature": "0x12620e13"
    },
    {
      "constant": false,
      "inputs": [],
      "name": "startVoting",
      "outputs": [],
      "payable": false,
      "stateMutability": "nonpayable",
      "type": "function",
      "signature": "0x1ec6b60a"
    },
    {
      "constant": false,
      "inputs": [],
      "name": "stopVoting",
      "outputs": [],
      "payable": false,
      "stateMutability": "nonpayable",
      "type": "function",
      "signature": "0xfab2f86b"
    },
    {
      "constant": false,
      "inputs": [
        {
          "internalType": "bytes32",
          "name": "_name",
          "type": "bytes32"
        }
      ],
      "name": "addCandidate",
      "outputs": [],
      "payable": false,
      "stateMutability": "nonpayable",
      "type": "function",
      "signature": "0x230d6ed8"
    },
    {
      "constant": false,
      "inputs": [
        {
          "internalType": "uint256",
          "name": "_voteIndex",
          "type": "uint256"
        }
      ],
      "name": "vote",
      "outputs": [],
      "payable": false,
      "stateMutability": "nonpayable",
      "type": "function",
      "signature": "0x0121b93f"
    }
  ],
  "bytecode": "0x60806040526000600555600060065560006007556001600860006101000a81548160ff02191690831515021790555034801561003a57600080fd5b50336000806101000a81548173ffffffffffffffffffffffffffffffffffffffff021916908373ffffffffffffffffffffffffffffffffffffffff16021790555061196f8061008a6000396000f3fe608060405234801561001057600080fd5b5060043610610149576000357c01000000000000000000000000000000000000000000000000000000009004806350e2e8af116100ca578063a3ec138d1161008e578063a3ec138d146106b1578063a4551fc514610735578063b2b956e214610757578063e280ab3c14610779578063fab2f86b1461084c57610149565b806350e2e8af146105c357806355e3e5d6146106315780635f5300ff1461065357806361243761146106715780639f8e48151461069357610149565b8063230d6ed811610111578063230d6ed81461039b5780633477ee2e146103c95780633866965c14610419578063400af02a146104375780634c0a6af0146105a157610149565b80630121b93f1461014e578063074395091461017c57806312620e131461037d5780631ec6b60a146103875780631f3c99c314610391575b600080fd5b61017a6004803603602081101561016457600080fd5b8101908080359060200190929190505050610856565b005b6103636004803603606081101561019257600080fd5b81019080803590602001906401000000008111156101af57600080fd5b8201836020820111156101c157600080fd5b803590602001918460018302840111640100000000831117156101e357600080fd5b91908080601f016020809104026020016040519081016040528093929190818152602001838380828437600081840152601f19601f8201169050808301925050505050505091929192908035906020019064010000000081111561024657600080fd5b82018360208201111561025857600080fd5b8035906020019184600183028401116401000000008311171561027a57600080fd5b91908080601f016020809104026020016040519081016040528093929190818152602001838380828437600081840152601f19601f820116905080830192505050505050509192919290803590602001906401000000008111156102dd57600080fd5b8201836020820111156102ef57600080fd5b8035906020019184600183028401116401000000008311171561031157600080fd5b91908080601f016020809104026020016040519081016040528093929190818152602001838380828437600081840152601f19601f820116905080830192505050505050509192919290505050610a5d565b604051808215151515815260200191505060405180910390f35b610385610c37565b005b61038f610cc8565b005b610399610d74565b005b6103c7600480360360208110156103b157600080fd5b8101908080359060200190929190505050610e2a565b005b6103f5600480360360208110156103df57600080fd5b8101908080359060200190929190505050610f04565b60405180848152602001838152602001828152602001935050505060405180910390f35b610421610f2e565b6040518082815260200191505060405180910390f35b6105876004803603604081101561044d57600080fd5b810190808035906020019064010000000081111561046a57600080fd5b82018360208201111561047c57600080fd5b8035906020019184600183028401116401000000008311171561049e57600080fd5b91908080601f016020809104026020016040519081016040528093929190818152602001838380828437600081840152601f19601f8201169050808301925050505050505091929192908035906020019064010000000081111561050157600080fd5b82018360208201111561051357600080fd5b8035906020019184600183028401116401000000008311171561053557600080fd5b91908080601f016020809104026020016040519081016040528093929190818152602001838380828437600081840152601f19601f820116905080830192505050505050509192919290505050610f34565b604051808215151515815260200191505060405180910390f35b6105a961125c565b604051808215151515815260200191505060405180910390f35b6105ef600480360360208110156105d957600080fd5b810190808035906020019092919050505061126f565b604051808273ffffffffffffffffffffffffffffffffffffffff1673ffffffffffffffffffffffffffffffffffffffff16815260200191505060405180910390f35b6106396112a2565b604051808215151515815260200191505060405180910390f35b61065b6112b5565b6040518082815260200191505060405180910390f35b6106796112bb565b604051808215151515815260200191505060405180910390f35b61069b6112ce565b6040518082815260200191505060405180910390f35b6106f3600480360360208110156106c757600080fd5b81019080803573ffffffffffffffffffffffffffffffffffffffff1690602001909291905050506112d4565b60405180861515151581526020018581526020018415151515815260200183151515158152602001821515151581526020019550505050505060405180910390f35b61073d61133e565b604051808215151515815260200191505060405180910390f35b61075f611351565b604051808215151515815260200191505060405180910390f35b6108326004803603602081101561078f57600080fd5b81019080803590602001906401000000008111156107ac57600080fd5b8201836020820111156107be57600080fd5b803590602001918460018302840111640100000000831117156107e057600080fd5b91908080601f016020809104026020016040519081016040528093929190818152602001838380828437600081840152601f19601f820116905080830192505050505050509192919290505050611364565b604051808215151515815260200191505060405180910390f35b6108546114ed565b005b600860029054906101000a900460ff16801561087f5750600860039054906101000a900460ff16155b61088857600080fd5b600160003373ffffffffffffffffffffffffffffffffffffffff1673ffffffffffffffffffffffffffffffffffffffff16815260200190815260200160002060000160009054906101000a900460ff16156108e257600080fd5b600160003373ffffffffffffffffffffffffffffffffffffffff1673ffffffffffffffffffffffffffffffffffffffff16815260200190815260200160002060020160029054906101000a900460ff1661093b57600080fd5b60008111801561094d57506007548111155b61095657600080fd5b80600160003373ffffffffffffffffffffffffffffffffffffffff1673ffffffffffffffffffffffffffffffffffffffff1681526020019081526020016000206001018190555060018060003373ffffffffffffffffffffffffffffffffffffffff1673ffffffffffffffffffffffffffffffffffffffff16815260200190815260200160002060000160006101000a81548160ff021916908315150217905550600160046000838152602001908152602001600020600201600082825401925050819055506001600660008282540192505081905550807ffff3c900d938d21d0990d786e819f29b8d05c1ef587b462b939609625b684b1660405160405180910390a250565b6000600160003373ffffffffffffffffffffffffffffffffffffffff1673ffffffffffffffffffffffffffffffffffffffff16815260200190815260200160002060020160009054906101000a900460ff1615610ab957600080fd5b60016005600082825401925050819055503360036000600554815260200190815260200160002060006101000a81548173ffffffffffffffffffffffffffffffffffffffff021916908373ffffffffffffffffffffffffffffffffffffffff16021790555060018060003373ffffffffffffffffffffffffffffffffffffffff1673ffffffffffffffffffffffffffffffffffffffff16815260200190815260200160002060020160006101000a81548160ff021916908315150217905550604051806060016040528085815260200184815260200183815250600260003373ffffffffffffffffffffffffffffffffffffffff1673ffffffffffffffffffffffffffffffffffffffff1681526020019081526020016000206000820151816000019080519060200190610bee929190611895565b506020820151816001019080519060200190610c0b929190611895565b506040820151816002019080519060200190610c28929190611895565b50905050600190509392505050565b6000809054906101000a900473ffffffffffffffffffffffffffffffffffffffff1673ffffffffffffffffffffffffffffffffffffffff163373ffffffffffffffffffffffffffffffffffffffff1614610c9057600080fd5b6001600860016101000a81548160ff0219169083151502179055506000600860006101000a81548160ff021916908315150217905550565b6000809054906101000a900473ffffffffffffffffffffffffffffffffffffffff1673ffffffffffffffffffffffffffffffffffffffff163373ffffffffffffffffffffffffffffffffffffffff1614610d2157600080fd5b6001600860026101000a81548160ff0219169083151502179055506001600860046101000a81548160ff0219169083151502179055506000600860016101000a81548160ff021916908315150217905550565b600160003373ffffffffffffffffffffffffffffffffffffffff1673ffffffffffffffffffffffffffffffffffffffff16815260200190815260200160002060020160019054906101000a900460ff16610dcd57600080fd5b6000600160003373ffffffffffffffffffffffffffffffffffffffff1673ffffffffffffffffffffffffffffffffffffffff16815260200190815260200160002060020160016101000a81548160ff021916908315150217905550565b6000809054906101000a900473ffffffffffffffffffffffffffffffffffffffff1673ffffffffffffffffffffffffffffffffffffffff163373ffffffffffffffffffffffffffffffffffffffff1614610e8357600080fd5b600860009054906101000a900460ff16610e9c57600080fd5b600160076000828254019250508190555060405180606001604052806007548152602001828152602001600081525060046000600754815260200190815260200160002060008201518160000155602082015181600101556040820151816002015590505050565b60046020528060005260406000206000915090508060000154908060010154908060020154905083565b60075481565b6000600160003373ffffffffffffffffffffffffffffffffffffffff1673ffffffffffffffffffffffffffffffffffffffff16815260200190815260200160002060020160009054906101000a900460ff16610f8f57600080fd5b826040516020018082805190602001908083835b60208310610fc65780518252602082019150602081019050602083039250610fa3565b6001836020036101000a03801982511681845116808217855250505050505090500191505060405160208183030381529060405280519060200120600260003373ffffffffffffffffffffffffffffffffffffffff1673ffffffffffffffffffffffffffffffffffffffff16815260200190815260200160002060000160405160200180828054600181600116156101000203166002900480156110a15780601f1061107f5761010080835404028352918201916110a1565b820191906000526020600020905b81548152906001019060200180831161108d575b5050915050604051602081830303815290604052805190602001201480156111f35750816040516020018082805190602001908083835b602083106110fb57805182526020820191506020810190506020830392506110d8565b6001836020036101000a03801982511681845116808217855250505050505090500191505060405160208183030381529060405280519060200120600260003373ffffffffffffffffffffffffffffffffffffffff1673ffffffffffffffffffffffffffffffffffffffff16815260200190815260200160002060010160405160200180828054600181600116156101000203166002900480156111d65780601f106111b45761010080835404028352918201916111d6565b820191906000526020600020905b8154815290600101906020018083116111c2575b505091505060405160208183030381529060405280519060200120145b6111fc57600080fd5b60018060003373ffffffffffffffffffffffffffffffffffffffff1673ffffffffffffffffffffffffffffffffffffffff16815260200190815260200160002060020160016101000a81548160ff02191690831515021790555092915050565b600860029054906101000a900460ff1681565b60036020528060005260406000206000915054906101000a900473ffffffffffffffffffffffffffffffffffffffff1681565b600860039054906101000a900460ff1681565b60055481565b600860009054906101000a900460ff1681565b60065481565b60016020528060005260406000206000915090508060000160009054906101000a900460ff16908060010154908060020160009054906101000a900460ff16908060020160019054906101000a900460ff16908060020160029054906101000a900460ff16905085565b600860049054906101000a900460ff1681565b600860019054906101000a900460ff1681565b60008060009054906101000a900473ffffffffffffffffffffffffffffffffffffffff1673ffffffffffffffffffffffffffffffffffffffff163373ffffffffffffffffffffffffffffffffffffffff16146113bf57600080fd5b600860019054906101000a900460ff166113d857600080fd5b60006113e38361157e565b9050600160008273ffffffffffffffffffffffffffffffffffffffff1673ffffffffffffffffffffffffffffffffffffffff16815260200190815260200160002060020160009054906101000a900460ff16156114955760018060008373ffffffffffffffffffffffffffffffffffffffff1673ffffffffffffffffffffffffffffffffffffffff16815260200190815260200160002060020160026101000a81548160ff0219169083151502179055505b600160008273ffffffffffffffffffffffffffffffffffffffff1673ffffffffffffffffffffffffffffffffffffffff16815260200190815260200160002060020160029054906101000a900460ff16915050919050565b6000809054906101000a900473ffffffffffffffffffffffffffffffffffffffff1673ffffffffffffffffffffffffffffffffffffffff163373ffffffffffffffffffffffffffffffffffffffff161461154657600080fd5b6001600860036101000a81548160ff0219169083151502179055506000600860046101000a81548160ff021916908315150217905550565b6000606082905060008090506000806000600290505b602a81101561188857610100840293508481815181106115b057fe5b60200101517f010000000000000000000000000000000000000000000000000000000000000090047f0100000000000000000000000000000000000000000000000000000000000000027f0100000000000000000000000000000000000000000000000000000000000000900460ff16925084600182018151811061163157fe5b60200101517f010000000000000000000000000000000000000000000000000000000000000090047f0100000000000000000000000000000000000000000000000000000000000000027f0100000000000000000000000000000000000000000000000000000000000000900460ff16915060618373ffffffffffffffffffffffffffffffffffffffff16101580156116e1575060668373ffffffffffffffffffffffffffffffffffffffff1611155b156116f15760578303925061178b565b60418373ffffffffffffffffffffffffffffffffffffffff161015801561172f575060468373ffffffffffffffffffffffffffffffffffffffff1611155b1561173f5760378303925061178a565b60308373ffffffffffffffffffffffffffffffffffffffff161015801561177d575060398373ffffffffffffffffffffffffffffffffffffffff1611155b15611789576030830392505b5b5b60618273ffffffffffffffffffffffffffffffffffffffff16101580156117c9575060668273ffffffffffffffffffffffffffffffffffffffff1611155b156117d957605782039150611873565b60418273ffffffffffffffffffffffffffffffffffffffff1610158015611817575060468273ffffffffffffffffffffffffffffffffffffffff1611155b1561182757603782039150611872565b60308273ffffffffffffffffffffffffffffffffffffffff1610158015611865575060398273ffffffffffffffffffffffffffffffffffffffff1611155b15611871576030820391505b5b5b81601084020184019350600281019050611594565b5082945050505050919050565b828054600181600116156101000203166002900490600052602060002090601f016020900481019282601f106118d657805160ff1916838001178555611904565b82800160010185558215611904579182015b828111156119035782518255916020019190600101906118e8565b5b5090506119119190611915565b5090565b61193791905b8082111561193357600081600090555060010161191b565b5090565b9056fea265627a7a72315820603b86b570eb97781bde5b453ca68ea9ce4f584507d253350ee2a115c694453664736f6c63430005110032",
  "source": "// File: contracts/eVote.sol\r\n// SPDX-License-Identifier: MIT\r\npragma solidity ^0.5.16;\r\n\r\ncontract eVote {\r\n    struct Voter {\r\n        bool hasVoted;\r\n        uint vote;\r\n\t\tbool isRegistered;\r\n\t\tbool isLoggedIn;\r\n\t\tbool allowedToVote;\r\n    }\r\n\tstruct VoterDetails{\r\n\t\tstring email;\r\n\t\tstring pass;\r\n\t\tstring identityno;\r\n\t\r\n\t}\r\n    struct Candidate {\r\n        uint id;\r\n        bytes32 name;\r\n        uint totalVotes;\r\n    }\r\n\t\r\n\taddress chairman;\r\n\t\r\n\r\n    mapping(address => Voter) public voters;\r\n\tmapping(address => VoterDetails) voterdetails; \r\n\tmapping(uint => address) public voterList; //addresses of registered voters\r\n    mapping(uint => Candidate) public candidates;\r\n\t\r\n    uint public totalVoters = 0;\r\n\tuint public votedUsers = 0;\r\n    uint public totalCandidates = 0;\r\n\t\r\n\tbool public registerCands = true;\r\n\tbool public authorizeUsers;\r\n\tbool public startVote;\r\n\tbool public finishedVote;\r\n\tbool public voteOngoing;\r\n\t\r\n\tconstructor() public {\r\n        chairman = msg.sender;\r\n    }\r\n\r\n\t\r\n\tfunction voterAuth(string memory _voter) public returns (bool) {\r\n\t\trequire(msg.sender == chairman);\r\n\t\trequire(authorizeUsers);\r\n\t\taddress _voter_addr = parseAddr(_voter);\r\n\t\tif(voters[_voter_addr].isRegistered){\r\n\t\t\tvoters[_voter_addr].allowedToVote = true;\r\n\t\t}\r\n\t\treturn voters[_voter_addr].allowedToVote;\r\n    }\r\n\t\r\n\t//converts string memory address to solidity type address\r\n\tfunction parseAddr(string memory _a) internal pure returns (address _parsedAddress) {\r\n\t\tbytes memory tmp = bytes(_a);\r\n\t\tuint160 iaddr = 0;\r\n\t\tuint160 b1;\r\n\t\tuint160 b2;\r\n\t\tfor (uint i = 2; i < 2 + 2 * 20; i += 2) {\r\n\t\t\tiaddr *= 256;\r\n\t\t\tb1 = uint160(uint8(tmp[i]));\r\n\t\t\tb2 = uint160(uint8(tmp[i + 1]));\r\n\t\t\tif ((b1 >= 97) && (b1 <= 102)) {\r\n\t\t\t\tb1 -= 87;\r\n\t\t\t} else if ((b1 >= 65) && (b1 <= 70)) {\r\n\t\t\t\tb1 -= 55;\r\n\t\t\t} else if ((b1 >= 48) && (b1 <= 57)) {\r\n\t\t\t\tb1 -= 48;\r\n\t\t\t}\r\n\t\t\tif ((b2 >= 97) && (b2 <= 102)) {\r\n\t\t\t\tb2 -= 87;\r\n\t\t\t} else if ((b2 >= 65) && (b2 <= 70)) {\r\n\t\t\t\tb2 -= 55;\r\n\t\t\t} else if ((b2 >= 48) && (b2 <= 57)) {\r\n\t\t\t\tb2 -= 48;\r\n\t\t\t}\r\n\t\t\tiaddr += (b1 * 16 + b2);\r\n\t\t}\r\n\t\treturn address(iaddr);\r\n\t}\r\n\t\r\n\t\r\n\tfunction loginVoter(string memory _email, string memory _password) public returns (bool)\r\n    {\r\n\t\trequire(voters[msg.sender].isRegistered);\r\n        require (\r\n\t\t\tkeccak256(abi.encodePacked(voterdetails[msg.sender].email)) ==\r\n            keccak256(abi.encodePacked(_email))  &&\r\n            keccak256(abi.encodePacked(voterdetails[msg.sender].pass)) ==\r\n            keccak256(abi.encodePacked(_password))\r\n\t\t\t\r\n        );\r\n\t\t\r\n        voters[msg.sender].isLoggedIn = true;\r\n    }\r\n\t\r\n\tfunction registerVoter(string memory _email,string memory _password,string memory _idno) public returns (bool) {\r\n\t\trequire(!voters[msg.sender].isRegistered);\r\n\t\ttotalVoters+= 1;\r\n\t\tvoterList[totalVoters] = msg.sender;\r\n\t\tvoters[msg.sender].isRegistered = true;\r\n\t\tvoterdetails[msg.sender] = VoterDetails(_email,_password,_idno);\r\n        return true;\r\n    }\r\n\t\r\n\tfunction logout() public {\r\n\t\trequire(voters[msg.sender].isLoggedIn);\r\n        voters[msg.sender].isLoggedIn = false;\r\n    }\r\n\t\r\n\tfunction authorizingUsers() public {\r\n\t\trequire(msg.sender == chairman);\r\n\t\tauthorizeUsers = true;\r\n\t\tregisterCands = false;\r\n\t}\r\n\t\r\n\tfunction startVoting() public {\r\n\t\trequire(msg.sender == chairman);\r\n\t\tstartVote = true;\r\n\t\tvoteOngoing = true;\r\n\t\tauthorizeUsers = false;\r\n\t}\r\n\t\r\n\tfunction stopVoting() public {\r\n\t\trequire(msg.sender == chairman);\r\n\t\tfinishedVote = true;\r\n\t\tvoteOngoing = false;\r\n\t}\r\n\t\r\n\tevent votedEvent (\r\n        uint indexed _voteIndex\r\n    );\r\n    \r\n    function addCandidate(bytes32 _name) public {\r\n\t\trequire(msg.sender == chairman);\r\n\t\trequire(registerCands);\r\n        totalCandidates+= 1;\r\n        candidates[totalCandidates] = Candidate(totalCandidates,_name, 0);\r\n    }\r\n\t\r\n\r\n    function vote(uint _voteIndex) public {\r\n\t\trequire(startVote && !finishedVote);\r\n\t\trequire(!voters[msg.sender].hasVoted);\r\n\t\trequire(voters[msg.sender].allowedToVote);\r\n\t\trequire(_voteIndex > 0 && _voteIndex <= totalCandidates);\r\n\r\n        voters[msg.sender].vote = _voteIndex;\r\n        voters[msg.sender].hasVoted = true;\r\n        candidates[_voteIndex].totalVotes += 1;\r\n\t\tvotedUsers += 1;\r\n\t\temit votedEvent(_voteIndex);\r\n    }\r\n\r\n}\r\n",
  "sourcePath": "G:/183120002/newwork/Blockchain_Thesis/contracts/eVote.sol",
  "compiler": {
    "name": "solc",
    "version": "0.5.17+commit.d19bba13.Emscripten.clang"
  },
  "schemaVersion": "3.0.1",
  "updatedAt": "2022-11-04T17:21:49.030Z",
  "devdoc": {
    "methods": {}
  },
  "userdoc": {
    "methods": {}
  }
}